{
  "contractName": "HarbergerAds",
  "abi": [
    {
      "constant": false,
      "inputs": [],
      "name": "renounceOwnership",
      "outputs": [],
      "payable": false,
      "stateMutability": "nonpayable",
      "type": "function"
    },
    {
      "constant": true,
      "inputs": [],
      "name": "erc20",
      "outputs": [
        {
          "name": "",
          "type": "address"
        }
      ],
      "payable": false,
      "stateMutability": "view",
      "type": "function"
    },
    {
      "constant": true,
      "inputs": [],
      "name": "owner",
      "outputs": [
        {
          "name": "",
          "type": "address"
        }
      ],
      "payable": false,
      "stateMutability": "view",
      "type": "function"
    },
    {
      "constant": true,
      "inputs": [],
      "name": "taxNumerator",
      "outputs": [
        {
          "name": "",
          "type": "uint32"
        }
      ],
      "payable": false,
      "stateMutability": "view",
      "type": "function"
    },
    {
      "constant": true,
      "inputs": [],
      "name": "taxDenominator",
      "outputs": [
        {
          "name": "",
          "type": "uint32"
        }
      ],
      "payable": false,
      "stateMutability": "view",
      "type": "function"
    },
    {
      "constant": false,
      "inputs": [
        {
          "name": "_newOwner",
          "type": "address"
        }
      ],
      "name": "transferOwnership",
      "outputs": [],
      "payable": false,
      "stateMutability": "nonpayable",
      "type": "function"
    },
    {
      "constant": true,
      "inputs": [
        {
          "name": "",
          "type": "uint256"
        }
      ],
      "name": "properties",
      "outputs": [
        {
          "name": "taxRecipient",
          "type": "address"
        },
        {
          "name": "owner",
          "type": "address"
        },
        {
          "name": "price",
          "type": "uint144"
        },
        {
          "name": "paidThru",
          "type": "uint112"
        }
      ],
      "payable": false,
      "stateMutability": "view",
      "type": "function"
    },
    {
      "inputs": [
        {
          "name": "erc20Address",
          "type": "address"
        },
        {
          "name": "_taxNumerator",
          "type": "uint32"
        },
        {
          "name": "_taxDenominator",
          "type": "uint32"
        }
      ],
      "payable": false,
      "stateMutability": "nonpayable",
      "type": "constructor"
    },
    {
      "anonymous": false,
      "inputs": [
        {
          "indexed": true,
          "name": "id",
          "type": "uint256"
        },
        {
          "indexed": true,
          "name": "to",
          "type": "address"
        },
        {
          "indexed": true,
          "name": "from",
          "type": "address"
        },
        {
          "indexed": false,
          "name": "price",
          "type": "uint256"
        }
      ],
      "name": "Change",
      "type": "event"
    },
    {
      "anonymous": false,
      "inputs": [
        {
          "indexed": true,
          "name": "id",
          "type": "uint256"
        },
        {
          "indexed": true,
          "name": "to",
          "type": "address"
        },
        {
          "indexed": true,
          "name": "from",
          "type": "address"
        }
      ],
      "name": "ChangeRecipient",
      "type": "event"
    },
    {
      "anonymous": false,
      "inputs": [
        {
          "indexed": true,
          "name": "id",
          "type": "uint256"
        },
        {
          "indexed": false,
          "name": "owner",
          "type": "address"
        },
        {
          "indexed": false,
          "name": "paid",
          "type": "uint256"
        }
      ],
      "name": "TaxesPaid",
      "type": "event"
    },
    {
      "anonymous": false,
      "inputs": [
        {
          "indexed": true,
          "name": "previousOwner",
          "type": "address"
        }
      ],
      "name": "OwnershipRenounced",
      "type": "event"
    },
    {
      "anonymous": false,
      "inputs": [
        {
          "indexed": true,
          "name": "previousOwner",
          "type": "address"
        },
        {
          "indexed": true,
          "name": "newOwner",
          "type": "address"
        }
      ],
      "name": "OwnershipTransferred",
      "type": "event"
    },
    {
      "constant": true,
      "inputs": [
        {
          "name": "id",
          "type": "uint256"
        }
      ],
      "name": "taxesDue",
      "outputs": [
        {
          "name": "",
          "type": "uint256"
        }
      ],
      "payable": false,
      "stateMutability": "view",
      "type": "function"
    },
    {
      "constant": true,
      "inputs": [
        {
          "name": "user",
          "type": "address"
        }
      ],
      "name": "balanceOf",
      "outputs": [
        {
          "name": "",
          "type": "uint256"
        }
      ],
      "payable": false,
      "stateMutability": "view",
      "type": "function"
    },
    {
      "constant": false,
      "inputs": [],
      "name": "addProperty",
      "outputs": [],
      "payable": false,
      "stateMutability": "nonpayable",
      "type": "function"
    },
    {
      "constant": false,
      "inputs": [
        {
          "name": "id",
          "type": "uint256"
        }
      ],
      "name": "forecloseIfPossible",
      "outputs": [],
      "payable": false,
      "stateMutability": "nonpayable",
      "type": "function"
    },
    {
      "constant": false,
      "inputs": [
        {
          "name": "id",
          "type": "uint256"
        }
      ],
      "name": "collectTaxes",
      "outputs": [
        {
          "name": "",
          "type": "bool"
        }
      ],
      "payable": false,
      "stateMutability": "nonpayable",
      "type": "function"
    },
    {
      "constant": false,
      "inputs": [
        {
          "name": "id",
          "type": "uint256"
        },
        {
          "name": "max",
          "type": "uint256"
        },
        {
          "name": "price",
          "type": "uint96"
        }
      ],
      "name": "buy",
      "outputs": [],
      "payable": false,
      "stateMutability": "nonpayable",
      "type": "function"
    },
    {
      "constant": true,
      "inputs": [],
      "name": "propertyCount",
      "outputs": [
        {
          "name": "",
          "type": "uint256"
        }
      ],
      "payable": false,
      "stateMutability": "view",
      "type": "function"
    },
    {
      "constant": false,
      "inputs": [
        {
          "name": "id",
          "type": "uint256"
        },
        {
          "name": "newRecipient",
          "type": "address"
        }
      ],
      "name": "changeRecipient",
      "outputs": [],
      "payable": false,
      "stateMutability": "nonpayable",
      "type": "function"
    }
  ],
  "bytecode": "0x608060405234801561001057600080fd5b50604051606080611e68833981018060405281019080805190602001909291908051906020019092919080519060200190929190505050336000806101000a81548173ffffffffffffffffffffffffffffffffffffffff021916908373ffffffffffffffffffffffffffffffffffffffff16021790555081600060146101000a81548163ffffffff021916908363ffffffff16021790555080600060186101000a81548163ffffffff021916908363ffffffff16021790555082600160006101000a81548173ffffffffffffffffffffffffffffffffffffffff021916908373ffffffffffffffffffffffffffffffffffffffff160217905550505050611d4c8061011c6000396000f3006080604052600436106100db576000357c0100000000000000000000000000000000000000000000000000000000900463ffffffff1680632dd2689c146100e05780636e1d4d8e146100f757806370a0823114610144578063715018a61461019b5780637612aee3146101b2578063785e9e86146101df5780637b74b8ec146102365780638da5cb5b1461027b5780639631af0b146102d2578063b361b2b514610309578063c361a33514610340578063ce6456b51461036b578063eb43107f146103ba578063f2fde38b146103fb578063f7b108081461043e575b600080fd5b3480156100ec57600080fd5b506100f5610534565b005b34801561010357600080fd5b5061014260048036038101908080359060200190929190803573ffffffffffffffffffffffffffffffffffffffff1690602001909291905050506106f7565b005b34801561015057600080fd5b50610185600480360381019080803573ffffffffffffffffffffffffffffffffffffffff169060200190929190505050610898565b6040518082815260200191505060405180910390f35b3480156101a757600080fd5b506101b0610ae0565b005b3480156101be57600080fd5b506101dd60048036038101908080359060200190929190505050610be2565b005b3480156101eb57600080fd5b506101f4610de2565b604051808273ffffffffffffffffffffffffffffffffffffffff1673ffffffffffffffffffffffffffffffffffffffff16815260200191505060405180910390f35b34801561024257600080fd5b5061026160048036038101908080359060200190929190505050610e08565b604051808215151515815260200191505060405180910390f35b34801561028757600080fd5b50610290611450565b604051808273ffffffffffffffffffffffffffffffffffffffff1673ffffffffffffffffffffffffffffffffffffffff16815260200191505060405180910390f35b3480156102de57600080fd5b506102e7611475565b604051808263ffffffff1663ffffffff16815260200191505060405180910390f35b34801561031557600080fd5b5061031e61148b565b604051808263ffffffff1663ffffffff16815260200191505060405180910390f35b34801561034c57600080fd5b506103556114a1565b6040518082815260200191505060405180910390f35b34801561037757600080fd5b506103b8600480360381019080803590602001909291908035906020019092919080356bffffffffffffffffffffffff1690602001909291905050506114ae565b005b3480156103c657600080fd5b506103e5600480360381019080803590602001909291905050506119b1565b6040518082815260200191505060405180910390f35b34801561040757600080fd5b5061043c600480360381019080803573ffffffffffffffffffffffffffffffffffffffff169060200190929190505050611a8f565b005b34801561044a57600080fd5b5061046960048036038101908080359060200190929190505050611af6565b604051808573ffffffffffffffffffffffffffffffffffffffff1673ffffffffffffffffffffffffffffffffffffffff1681526020018473ffffffffffffffffffffffffffffffffffffffff1673ffffffffffffffffffffffffffffffffffffffff1681526020018371ffffffffffffffffffffffffffffffffffff1671ffffffffffffffffffffffffffffffffffff168152602001826dffffffffffffffffffffffffffff166dffffffffffffffffffffffffffff16815260200194505050505060405180910390f35b61053c611ca7565b600033826000019073ffffffffffffffffffffffffffffffffffffffff16908173ffffffffffffffffffffffffffffffffffffffff168152505060016002839080600181540180825580915050906001820390600052602060002090600302016000909192909190915060008201518160000160006101000a81548173ffffffffffffffffffffffffffffffffffffffff021916908373ffffffffffffffffffffffffffffffffffffffff16021790555060208201518160010160006101000a81548173ffffffffffffffffffffffffffffffffffffffff021916908373ffffffffffffffffffffffffffffffffffffffff16021790555060408201518160020160006101000a81548171ffffffffffffffffffffffffffffffffffff021916908371ffffffffffffffffffffffffffffffffffff16021790555060608201518160020160126101000a8154816dffffffffffffffffffffffffffff02191690836dffffffffffffffffffffffffffff1602179055505050039050600080827f62c73e9b417b0f3e1319208e857f8ead9b12f27b0a101587170d80787bb6562960006040518082815260200191505060405180910390a45050565b60028281548110151561070657fe5b906000526020600020906003020160000160009054906101000a900473ffffffffffffffffffffffffffffffffffffffff1673ffffffffffffffffffffffffffffffffffffffff163373ffffffffffffffffffffffffffffffffffffffff161415156107da576040517f08c379a000000000000000000000000000000000000000000000000000000000815260040180806020018281038252601d8152602001807f6d7573742062652070726576696f757320746178526563697069656e7400000081525060200191505060405180910390fd5b806002838154811015156107ea57fe5b906000526020600020906003020160000160006101000a81548173ffffffffffffffffffffffffffffffffffffffff021916908373ffffffffffffffffffffffffffffffffffffffff1602179055503373ffffffffffffffffffffffffffffffffffffffff168173ffffffffffffffffffffffffffffffffffffffff16837f762566a6fa8037441ab8186300bd5e7d04d774e7b629a4277f84fcbf0bb17f9460405160405180910390a45050565b6000806000600160009054906101000a900473ffffffffffffffffffffffffffffffffffffffff1673ffffffffffffffffffffffffffffffffffffffff166370a08231856040518263ffffffff167c0100000000000000000000000000000000000000000000000000000000028152600401808273ffffffffffffffffffffffffffffffffffffffff1673ffffffffffffffffffffffffffffffffffffffff168152602001915050602060405180830381600087803b15801561095a57600080fd5b505af115801561096e573d6000803e3d6000fd5b505050506040513d602081101561098457600080fd5b81019080805190602001909291905050509150600160009054906101000a900473ffffffffffffffffffffffffffffffffffffffff1673ffffffffffffffffffffffffffffffffffffffff1663dd62ed3e85306040518363ffffffff167c0100000000000000000000000000000000000000000000000000000000028152600401808373ffffffffffffffffffffffffffffffffffffffff1673ffffffffffffffffffffffffffffffffffffffff1681526020018273ffffffffffffffffffffffffffffffffffffffff1673ffffffffffffffffffffffffffffffffffffffff16815260200192505050602060405180830381600087803b158015610a8857600080fd5b505af1158015610a9c573d6000803e3d6000fd5b505050506040513d6020811015610ab257600080fd5b8101908080519060200190929190505050905080821115610ad557809250610ad9565b8192505b5050919050565b6000809054906101000a900473ffffffffffffffffffffffffffffffffffffffff1673ffffffffffffffffffffffffffffffffffffffff163373ffffffffffffffffffffffffffffffffffffffff16141515610b3b57600080fd5b6000809054906101000a900473ffffffffffffffffffffffffffffffffffffffff1673ffffffffffffffffffffffffffffffffffffffff167ff8df31144d9c2f0f6b59d69b8b98abd5459d07f2742c4df920b25aae33c6482060405160405180910390a260008060006101000a81548173ffffffffffffffffffffffffffffffffffffffff021916908373ffffffffffffffffffffffffffffffffffffffff160217905550565b6000600282815481101515610bf357fe5b906000526020600020906003020190506000610c328260010160009054906101000a900473ffffffffffffffffffffffffffffffffffffffff16610898565b148015610c6c5750428160020160129054906101000a90046dffffffffffffffffffffffffffff166dffffffffffffffffffffffffffff16105b8015610cae575060008160020160009054906101000a900471ffffffffffffffffffffffffffffffffffff1671ffffffffffffffffffffffffffffffffffff16115b15610dde578060010160009054906101000a900473ffffffffffffffffffffffffffffffffffffffff1673ffffffffffffffffffffffffffffffffffffffff166000837f62c73e9b417b0f3e1319208e857f8ead9b12f27b0a101587170d80787bb6562960006040518082815260200191505060405180910390a4600282815481101515610d3857fe5b9060005260206000209060030201600080820160006101000a81549073ffffffffffffffffffffffffffffffffffffffff02191690556001820160006101000a81549073ffffffffffffffffffffffffffffffffffffffff02191690556002820160006101000a81549071ffffffffffffffffffffffffffffffffffff02191690556002820160126101000a8154906dffffffffffffffffffffffffffff021916905550505b5050565b600160009054906101000a900473ffffffffffffffffffffffffffffffffffffffff1681565b600080600080600285815481101515610e1d57fe5b90600052602060002090600302019250610e5a8360010160009054906101000a900473ffffffffffffffffffffffffffffffffffffffff16610898565b9150610e65856119b1565b9050818111151561113057428360020160126101000a8154816dffffffffffffffffffffffffffff02191690836dffffffffffffffffffffffffffff160217905550600160009054906101000a900473ffffffffffffffffffffffffffffffffffffffff1673ffffffffffffffffffffffffffffffffffffffff166323b872dd8460010160009054906101000a900473ffffffffffffffffffffffffffffffffffffffff168560000160009054906101000a900473ffffffffffffffffffffffffffffffffffffffff16846040518463ffffffff167c0100000000000000000000000000000000000000000000000000000000028152600401808473ffffffffffffffffffffffffffffffffffffffff1673ffffffffffffffffffffffffffffffffffffffff1681526020018373ffffffffffffffffffffffffffffffffffffffff1673ffffffffffffffffffffffffffffffffffffffff1681526020018281526020019350505050602060405180830381600087803b158015610fe857600080fd5b505af1158015610ffc573d6000803e3d6000fd5b505050506040513d602081101561101257600080fd5b81019080805190602001909291905050501515611097576040517f08c379a00000000000000000000000000000000000000000000000000000000081526004018080602001828103825260138152602001807f7472616e7366657246726f6d206661696c65640000000000000000000000000081525060200191505060405180910390fd5b847fcb3dc00dad463d6e863a30d04ab42fb2164e4b3fcf950e4a6d7c61214632dead8460010160009054906101000a900473ffffffffffffffffffffffffffffffffffffffff1683604051808373ffffffffffffffffffffffffffffffffffffffff1673ffffffffffffffffffffffffffffffffffffffff1681526020018281526020019250505060405180910390a260019350611448565b80828460020160129054906101000a90046dffffffffffffffffffffffffffff166dffffffffffffffffffffffffffff1642030281151561116d57fe5b048360020160128282829054906101000a90046dffffffffffffffffffffffffffff160192506101000a8154816dffffffffffffffffffffffffffff02191690836dffffffffffffffffffffffffffff160217905550600160009054906101000a900473ffffffffffffffffffffffffffffffffffffffff1673ffffffffffffffffffffffffffffffffffffffff166323b872dd8460010160009054906101000a900473ffffffffffffffffffffffffffffffffffffffff168560000160009054906101000a900473ffffffffffffffffffffffffffffffffffffffff16856040518463ffffffff167c0100000000000000000000000000000000000000000000000000000000028152600401808473ffffffffffffffffffffffffffffffffffffffff1673ffffffffffffffffffffffffffffffffffffffff1681526020018373ffffffffffffffffffffffffffffffffffffffff1673ffffffffffffffffffffffffffffffffffffffff1681526020018281526020019350505050602060405180830381600087803b15801561130457600080fd5b505af1158015611318573d6000803e3d6000fd5b505050506040513d602081101561132e57600080fd5b810190808051906020019092919050505015156113b3576040517f08c379a00000000000000000000000000000000000000000000000000000000081526004018080602001828103825260138152602001807f7472616e7366657246726f6d206661696c65640000000000000000000000000081525060200191505060405180910390fd5b847fcb3dc00dad463d6e863a30d04ab42fb2164e4b3fcf950e4a6d7c61214632dead8460010160009054906101000a900473ffffffffffffffffffffffffffffffffffffffff1684604051808373ffffffffffffffffffffffffffffffffffffffff1673ffffffffffffffffffffffffffffffffffffffff1681526020018281526020019250505060405180910390a2600093505b505050919050565b6000809054906101000a900473ffffffffffffffffffffffffffffffffffffffff1681565b600060149054906101000a900463ffffffff1681565b600060189054906101000a900463ffffffff1681565b6000600280549050905090565b6000806002858154811015156114c057fe5b906000526020600020906003020191506114d985610e08565b506114e385610be2565b8160010160009054906101000a900473ffffffffffffffffffffffffffffffffffffffff1690503373ffffffffffffffffffffffffffffffffffffffff168173ffffffffffffffffffffffffffffffffffffffff161415156118e9578160020160009054906101000a900471ffffffffffffffffffffffffffffffffffff1671ffffffffffffffffffffffffffffffffffff1684101515156115ed576040517f08c379a00000000000000000000000000000000000000000000000000000000081526004018080602001828103825260118152602001807f707269636520697320746f6f206869676800000000000000000000000000000081525060200191505060405180910390fd5b8160020160009054906101000a900471ffffffffffffffffffffffffffffffffffff1671ffffffffffffffffffffffffffffffffffff1661162d33610898565b101515156116a3576040517f08c379a00000000000000000000000000000000000000000000000000000000081526004018080602001828103825260128152602001807f696e73756666696369656e742066756e6473000000000000000000000000000081525060200191505060405180910390fd5b600160009054906101000a900473ffffffffffffffffffffffffffffffffffffffff1673ffffffffffffffffffffffffffffffffffffffff166323b872dd8360010160009054906101000a900473ffffffffffffffffffffffffffffffffffffffff16838560020160009054906101000a900471ffffffffffffffffffffffffffffffffffff166040518463ffffffff167c0100000000000000000000000000000000000000000000000000000000028152600401808473ffffffffffffffffffffffffffffffffffffffff1673ffffffffffffffffffffffffffffffffffffffff1681526020018373ffffffffffffffffffffffffffffffffffffffff1673ffffffffffffffffffffffffffffffffffffffff1681526020018271ffffffffffffffffffffffffffffffffffff1681526020019350505050602060405180830381600087803b1580156117f657600080fd5b505af115801561180a573d6000803e3d6000fd5b505050506040513d602081101561182057600080fd5b810190808051906020019092919050505015156118a5576040517f08c379a00000000000000000000000000000000000000000000000000000000081526004018080602001828103825260138152602001807f7472616e7366657246726f6d206661696c65640000000000000000000000000081525060200191505060405180910390fd5b338260010160006101000a81548173ffffffffffffffffffffffffffffffffffffffff021916908373ffffffffffffffffffffffffffffffffffffffff1602179055505b826bffffffffffffffffffffffff168260020160006101000a81548171ffffffffffffffffffffffffffffffffffff021916908371ffffffffffffffffffffffffffffffffffff1602179055508073ffffffffffffffffffffffffffffffffffffffff163373ffffffffffffffffffffffffffffffffffffffff16867f62c73e9b417b0f3e1319208e857f8ead9b12f27b0a101587170d80787bb656298660405180826bffffffffffffffffffffffff16815260200191505060405180910390a45050505050565b6000806002838154811015156119c357fe5b9060005260206000209060030201905062015180600060189054906101000a900463ffffffff1663ffffffff16600060149054906101000a900463ffffffff1663ffffffff168360020160129054906101000a90046dffffffffffffffffffffffffffff166dffffffffffffffffffffffffffff1642038460020160009054906101000a900471ffffffffffffffffffffffffffffffffffff1671ffffffffffffffffffffffffffffffffffff160202811515611a7c57fe5b04811515611a8657fe5b04915050919050565b6000809054906101000a900473ffffffffffffffffffffffffffffffffffffffff1673ffffffffffffffffffffffffffffffffffffffff163373ffffffffffffffffffffffffffffffffffffffff16141515611aea57600080fd5b611af381611bad565b50565b600281815481101515611b0557fe5b90600052602060002090600302016000915090508060000160009054906101000a900473ffffffffffffffffffffffffffffffffffffffff16908060010160009054906101000a900473ffffffffffffffffffffffffffffffffffffffff16908060020160009054906101000a900471ffffffffffffffffffffffffffffffffffff16908060020160129054906101000a90046dffffffffffffffffffffffffffff16905084565b600073ffffffffffffffffffffffffffffffffffffffff168173ffffffffffffffffffffffffffffffffffffffff1614151515611be957600080fd5b8073ffffffffffffffffffffffffffffffffffffffff166000809054906101000a900473ffffffffffffffffffffffffffffffffffffffff1673ffffffffffffffffffffffffffffffffffffffff167f8be0079c531659141344cd1fd0a4f28419497f9722a3daafe3b4186f6b6457e060405160405180910390a3806000806101000a81548173ffffffffffffffffffffffffffffffffffffffff021916908373ffffffffffffffffffffffffffffffffffffffff16021790555050565b608060405190810160405280600073ffffffffffffffffffffffffffffffffffffffff168152602001600073ffffffffffffffffffffffffffffffffffffffff168152602001600071ffffffffffffffffffffffffffffffffffff16815260200160006dffffffffffffffffffffffffffff16815250905600a165627a7a72305820ddcf21fe6e60be0600ae20289a6afe142df5c0eb6d5bec74b11d9cb28c1262890029",
  "source": "pragma solidity ^0.4.24;\nimport 'zeppelin-solidity/contracts/ownership/Ownable.sol';\nimport 'zeppelin-solidity/contracts/token/ERC20/ERC20.sol';\n\ncontract HarbergerAds is Ownable {\n    // Per day tax rate\n    uint32 public taxNumerator;\n    uint32 public taxDenominator;\n\n    ERC20 public erc20;\n\n    struct Property {\n        address taxRecipient;\n        address owner;\n        uint144 price;\n        uint112 paidThru;\n    }\n\n    Property[] public properties;\n\n    constructor(\n        ERC20 erc20Address,\n        uint32 _taxNumerator,\n        uint32 _taxDenominator\n    ) public {\n        taxNumerator = _taxNumerator;\n        taxDenominator = _taxDenominator;\n        erc20 = erc20Address;\n    }\n\n    function taxesDue(uint256 id) public view returns (uint256) {\n        Property storage p = properties[id];\n\n        return p.price * (now - p.paidThru) * taxNumerator\n            / taxDenominator / 1 days;\n    }\n\n    function balanceOf(address user) public constant returns (uint256) {\n        uint256 balance = erc20.balanceOf(user);\n        uint256 allowance = erc20.allowance(user, this);\n        if (balance > allowance) {\n            return allowance;\n        } else {\n            return balance;\n        }\n    }\n\n    event Change(uint256 indexed id, address indexed to, address indexed from, uint256 price);\n    event ChangeRecipient(uint256 indexed id, address indexed to, address indexed from);\n    event TaxesPaid(uint256 indexed id, address owner, uint256 paid);\n\n    function addProperty() public {\n        Property memory p;\n        p.taxRecipient = msg.sender;\n        uint256 id = properties.push(p) - 1;\n        emit Change(id, 0, 0, 0);\n    }\n\n    // Possibly foreclose on property[id]\n    function forecloseIfPossible(uint256 id) public {\n        Property storage p = properties[id];\n\n        // Owner must be broke and behind on taxes to foreclose\n        if (balanceOf(p.owner) == 0 && p.paidThru < now && p.price > 0) {\n            emit Change(id, 0, p.owner, 0);\n            delete(properties[id]);\n        }\n    }\n\n    // Collect taxes due from account.\n    // Return true if taxes fully paid, false otherwise\n    function collectTaxes(uint256 id) public returns (bool) {\n        Property storage p = properties[id];\n        uint256 balance = balanceOf(p.owner);\n        uint256 taxes = taxesDue(id);\n        if (taxes <= balance) {\n            p.paidThru = uint112(now);\n            require(erc20.transferFrom(p.owner, p.taxRecipient, taxes), 'transferFrom failed');\n            emit TaxesPaid(id, p.owner, taxes);\n            return true;\n        } else {\n            // Adjust paidThru proportionally (overflow check unnecessary)\n            p.paidThru += uint112((now - p.paidThru) * balance / taxes);\n\n            // Collect entire balance for partially-paid taxes\n            require(erc20.transferFrom(p.owner, p.taxRecipient, balance), 'transferFrom failed');\n            emit TaxesPaid(id, p.owner, balance);\n            return false;\n        }\n    }\n\n    // Try to buy property for no more than 'max'\n    function buy(\n        uint256 id,\n        uint256 max,\n        uint96 price\n    )\n        public\n    {\n        Property storage p = properties[id];\n\n        // Collect taxes from property's owner and possibly foreclose on property[id].\n        collectTaxes(id);\n\n        // Foreclosure may change price and seller.\n        forecloseIfPossible(id);\n        address seller = p.owner;\n\n        if (seller != msg.sender) {\n            require(max >= p.price, \"price is too high\");\n\n            require(balanceOf(msg.sender) >= p.price,\n                \"insufficient funds\");\n\n            // Transfer purchase price\n            require(erc20.transferFrom(p.owner, seller, p.price), 'transferFrom failed');\n            p.owner = msg.sender;\n        }\n\n        p.price = price;\n        emit Change(id, msg.sender, seller, price);\n    }\n\n    function propertyCount() public view returns (uint256) {\n        return properties.length;\n    }\n\n    function changeRecipient(uint256 id, address newRecipient) public {\n        require(msg.sender == properties[id].taxRecipient, \"must be previous taxRecipient\");\n        properties[id].taxRecipient = newRecipient;\n        emit ChangeRecipient(id, newRecipient, msg.sender);\n    }\n\n}\n",
  "sourcePath": "/Users/billy/sol/harberger-ads/contracts/HarbergerAds.sol",
  "compiler": {
    "name": "solc",
    "version": "0.4.24+commit.e67f0147.Emscripten.clang"
  },
  "schemaVersion": "2.0.1",
  "updatedAt": "2018-10-06T20:38:52.398Z"
}