{
  "contractName": "HarbergerAds",
  "abi": [
    {
      "constant": true,
      "inputs": [
        {
          "name": "",
          "type": "address"
        }
      ],
      "name": "accounts",
      "outputs": [
        {
          "name": "balance",
          "type": "uint256"
        },
        {
          "name": "sumOfPrices",
          "type": "uint144"
        },
        {
          "name": "paidThru",
          "type": "uint112"
        }
      ],
      "payable": false,
      "stateMutability": "view",
      "type": "function"
    },
    {
      "constant": true,
      "inputs": [],
      "name": "taxRecipient",
      "outputs": [
        {
          "name": "",
          "type": "address"
        }
      ],
      "payable": false,
      "stateMutability": "view",
      "type": "function"
    },
    {
      "constant": true,
      "inputs": [],
      "name": "taxNumerator",
      "outputs": [
        {
          "name": "",
          "type": "uint32"
        }
      ],
      "payable": false,
      "stateMutability": "view",
      "type": "function"
    },
    {
      "constant": true,
      "inputs": [],
      "name": "taxDenominator",
      "outputs": [
        {
          "name": "",
          "type": "uint32"
        }
      ],
      "payable": false,
      "stateMutability": "view",
      "type": "function"
    },
    {
      "constant": true,
      "inputs": [],
      "name": "newRecipient",
      "outputs": [
        {
          "name": "",
          "type": "address"
        }
      ],
      "payable": false,
      "stateMutability": "view",
      "type": "function"
    },
    {
      "constant": true,
      "inputs": [
        {
          "name": "",
          "type": "uint256"
        }
      ],
      "name": "properties",
      "outputs": [
        {
          "name": "owner",
          "type": "address"
        },
        {
          "name": "price",
          "type": "uint96"
        }
      ],
      "payable": false,
      "stateMutability": "view",
      "type": "function"
    },
    {
      "inputs": [
        {
          "name": "numberOfProperties",
          "type": "uint48"
        },
        {
          "name": "_taxNumerator",
          "type": "uint32"
        },
        {
          "name": "_taxDenominator",
          "type": "uint32"
        }
      ],
      "payable": false,
      "stateMutability": "nonpayable",
      "type": "constructor"
    },
    {
      "anonymous": false,
      "inputs": [
        {
          "indexed": true,
          "name": "id",
          "type": "uint256"
        },
        {
          "indexed": true,
          "name": "to",
          "type": "address"
        },
        {
          "indexed": true,
          "name": "from",
          "type": "address"
        }
      ],
      "name": "Change",
      "type": "event"
    },
    {
      "anonymous": false,
      "inputs": [
        {
          "indexed": false,
          "name": "owner",
          "type": "address"
        },
        {
          "indexed": false,
          "name": "paid",
          "type": "uint256"
        }
      ],
      "name": "TaxesPaid",
      "type": "event"
    },
    {
      "constant": true,
      "inputs": [
        {
          "name": "addr",
          "type": "address"
        }
      ],
      "name": "taxesDue",
      "outputs": [
        {
          "name": "",
          "type": "uint256"
        }
      ],
      "payable": false,
      "stateMutability": "view",
      "type": "function"
    },
    {
      "constant": false,
      "inputs": [
        {
          "name": "id",
          "type": "uint256"
        }
      ],
      "name": "forecloseIfPossible",
      "outputs": [],
      "payable": false,
      "stateMutability": "nonpayable",
      "type": "function"
    },
    {
      "constant": false,
      "inputs": [
        {
          "name": "addr",
          "type": "address"
        }
      ],
      "name": "collectTaxes",
      "outputs": [
        {
          "name": "",
          "type": "bool"
        }
      ],
      "payable": false,
      "stateMutability": "nonpayable",
      "type": "function"
    },
    {
      "constant": false,
      "inputs": [
        {
          "name": "id",
          "type": "uint256"
        },
        {
          "name": "max",
          "type": "uint256"
        },
        {
          "name": "price",
          "type": "uint96"
        }
      ],
      "name": "buy",
      "outputs": [],
      "payable": true,
      "stateMutability": "payable",
      "type": "function"
    },
    {
      "constant": false,
      "inputs": [],
      "name": "deposit",
      "outputs": [],
      "payable": true,
      "stateMutability": "payable",
      "type": "function"
    },
    {
      "constant": false,
      "inputs": [
        {
          "name": "amount",
          "type": "uint256"
        }
      ],
      "name": "withdraw",
      "outputs": [],
      "payable": false,
      "stateMutability": "nonpayable",
      "type": "function"
    },
    {
      "constant": true,
      "inputs": [],
      "name": "propertyCount",
      "outputs": [
        {
          "name": "",
          "type": "uint256"
        }
      ],
      "payable": false,
      "stateMutability": "view",
      "type": "function"
    },
    {
      "constant": false,
      "inputs": [
        {
          "name": "_newRecipient",
          "type": "address"
        }
      ],
      "name": "approveRecipient",
      "outputs": [],
      "payable": false,
      "stateMutability": "nonpayable",
      "type": "function"
    },
    {
      "constant": false,
      "inputs": [],
      "name": "transferRecipient",
      "outputs": [],
      "payable": false,
      "stateMutability": "nonpayable",
      "type": "function"
    }
  ],
  "bytecode": "0x608060405234801561001057600080fd5b5060405160608062001876833981018060405281019080805190602001909291908051906020019092919080519060200190929190505050336000806101000a81548173ffffffffffffffffffffffffffffffffffffffff021916908373ffffffffffffffffffffffffffffffffffffffff1602179055508265ffffffffffff1660018161009e91906100e9565b5081600060146101000a81548163ffffffff021916908363ffffffff16021790555080600060186101000a81548163ffffffff021916908363ffffffff16021790555050505061017a565b8154818355818111156101105781836000526020600020918201910161010f9190610115565b5b505050565b61017791905b8082111561017357600080820160006101000a81549073ffffffffffffffffffffffffffffffffffffffff02191690556000820160146101000a8154906bffffffffffffffffffffffff02191690555060010161011b565b5090565b90565b6116ec806200018a6000396000f3006080604052600436106100db576000357c0100000000000000000000000000000000000000000000000000000000900463ffffffff16806304d9f3cb146100e05780631248454c146101375780632e1a7d4d1461014e5780635e5c06e21461017b578063737ea06e146102285780637612aee31461027f57806376d45a09146102ac5780639631af0b146102ef578063b361b2b514610326578063b997946c1461035d578063c361a335146103b4578063ce6456b5146103df578063d0e30db014610421578063dc6f78901461042b578063f7b1080814610486575b600080fd5b3480156100ec57600080fd5b50610121600480360381019080803573ffffffffffffffffffffffffffffffffffffffff169060200190929190505050610516565b6040518082815260200191505060405180910390f35b34801561014357600080fd5b5061014c610616565b005b34801561015a57600080fd5b506101796004803603810190808035906020019092919050505061075f565b005b34801561018757600080fd5b506101bc600480360381019080803573ffffffffffffffffffffffffffffffffffffffff1690602001909291905050506108bd565b604051808481526020018371ffffffffffffffffffffffffffffffffffff1671ffffffffffffffffffffffffffffffffffff168152602001826dffffffffffffffffffffffffffff166dffffffffffffffffffffffffffff168152602001935050505060405180910390f35b34801561023457600080fd5b5061023d61091f565b604051808273ffffffffffffffffffffffffffffffffffffffff1673ffffffffffffffffffffffffffffffffffffffff16815260200191505060405180910390f35b34801561028b57600080fd5b506102aa60048036038101908080359060200190929190505050610944565b005b3480156102b857600080fd5b506102ed600480360381019080803573ffffffffffffffffffffffffffffffffffffffff169060200190929190505050610bad565b005b3480156102fb57600080fd5b50610304610cb5565b604051808263ffffffff1663ffffffff16815260200191505060405180910390f35b34801561033257600080fd5b5061033b610ccb565b604051808263ffffffff1663ffffffff16815260200191505060405180910390f35b34801561036957600080fd5b50610372610ce1565b604051808273ffffffffffffffffffffffffffffffffffffffff1673ffffffffffffffffffffffffffffffffffffffff16815260200191505060405180910390f35b3480156103c057600080fd5b506103c9610d07565b6040518082815260200191505060405180910390f35b61041f600480360381019080803590602001909291908035906020019092919080356bffffffffffffffffffffffff169060200190929190505050610d14565b005b6104296112ea565b005b34801561043757600080fd5b5061046c600480360381019080803573ffffffffffffffffffffffffffffffffffffffff16906020019092919050505061133c565b604051808215151515815260200191505060405180910390f35b34801561049257600080fd5b506104b160048036038101908080359060200190929190505050611659565b604051808373ffffffffffffffffffffffffffffffffffffffff1673ffffffffffffffffffffffffffffffffffffffff168152602001826bffffffffffffffffffffffff166bffffffffffffffffffffffff1681526020019250505060405180910390f35b600080600260008473ffffffffffffffffffffffffffffffffffffffff1673ffffffffffffffffffffffffffffffffffffffff168152602001908152602001600020905062015180600060189054906101000a900463ffffffff1663ffffffff16600060149054906101000a900463ffffffff1663ffffffff168360010160129054906101000a90046dffffffffffffffffffffffffffff166dffffffffffffffffffffffffffff1642038460010160009054906101000a900471ffffffffffffffffffffffffffffffffffff1671ffffffffffffffffffffffffffffffffffff16020281151561060357fe5b0481151561060d57fe5b04915050919050565b600360009054906101000a900473ffffffffffffffffffffffffffffffffffffffff1673ffffffffffffffffffffffffffffffffffffffff163373ffffffffffffffffffffffffffffffffffffffff161415156106db576040517f08c379a00000000000000000000000000000000000000000000000000000000081526004018080602001828103825260108152602001807f6d75737420626520617070726f7665640000000000000000000000000000000081525060200191505060405180910390fd5b336000806101000a81548173ffffffffffffffffffffffffffffffffffffffff021916908373ffffffffffffffffffffffffffffffffffffffff1602179055506000600360006101000a81548173ffffffffffffffffffffffffffffffffffffffff021916908373ffffffffffffffffffffffffffffffffffffffff160217905550565b6107683361133c565b5080600260003373ffffffffffffffffffffffffffffffffffffffff1673ffffffffffffffffffffffffffffffffffffffff1681526020019081526020016000206000015410151515610823576040517f08c379a00000000000000000000000000000000000000000000000000000000081526004018080602001828103825260128152602001807f696e73756666696369656e742066756e6473000000000000000000000000000081525060200191505060405180910390fd5b80600260003373ffffffffffffffffffffffffffffffffffffffff1673ffffffffffffffffffffffffffffffffffffffff168152602001908152602001600020600001600082825403925050819055503373ffffffffffffffffffffffffffffffffffffffff166108fc829081150290604051600060405180830381858888f193505050501580156108b9573d6000803e3d6000fd5b5050565b60026020528060005260406000206000915090508060000154908060010160009054906101000a900471ffffffffffffffffffffffffffffffffffff16908060010160129054906101000a90046dffffffffffffffffffffffffffff16905083565b6000809054906101000a900473ffffffffffffffffffffffffffffffffffffffff1681565b60008060018381548110151561095657fe5b906000526020600020019150600260008360000160009054906101000a900473ffffffffffffffffffffffffffffffffffffffff1673ffffffffffffffffffffffffffffffffffffffff1673ffffffffffffffffffffffffffffffffffffffff168152602001908152602001600020905060008160000154148015610a085750428160010160129054906101000a90046dffffffffffffffffffffffffffff166dffffffffffffffffffffffffffff16105b8015610a4a575060008160010160009054906101000a900471ffffffffffffffffffffffffffffffffffff1671ffffffffffffffffffffffffffffffffffff16115b15610ba8578160000160149054906101000a90046bffffffffffffffffffffffff166bffffffffffffffffffffffff168160010160008282829054906101000a900471ffffffffffffffffffffffffffffffffffff160392506101000a81548171ffffffffffffffffffffffffffffffffffff021916908371ffffffffffffffffffffffffffffffffffff1602179055508160000160009054906101000a900473ffffffffffffffffffffffffffffffffffffffff1673ffffffffffffffffffffffffffffffffffffffff166000847f7e57392e3f06f222695bf3743dd8eca7b87c7f76a5dc3500fa34c724b746a1ab60405160405180910390a4600183815481101515610b5457fe5b90600052602060002001600080820160006101000a81549073ffffffffffffffffffffffffffffffffffffffff02191690556000820160146101000a8154906bffffffffffffffffffffffff021916905550505b505050565b6000809054906101000a900473ffffffffffffffffffffffffffffffffffffffff1673ffffffffffffffffffffffffffffffffffffffff163373ffffffffffffffffffffffffffffffffffffffff16141515610c71576040517f08c379a00000000000000000000000000000000000000000000000000000000081526004018080602001828103825260148152602001807f6d75737420626520746178526563697069656e7400000000000000000000000081525060200191505060405180910390fd5b80600360006101000a81548173ffffffffffffffffffffffffffffffffffffffff021916908373ffffffffffffffffffffffffffffffffffffffff16021790555050565b600060149054906101000a900463ffffffff1681565b600060189054906101000a900463ffffffff1681565b600360009054906101000a900473ffffffffffffffffffffffffffffffffffffffff1681565b6000600180549050905090565b60008034600260003373ffffffffffffffffffffffffffffffffffffffff1673ffffffffffffffffffffffffffffffffffffffff16815260200190815260200160002060000160008282540192505081905550600185815481101515610d7657fe5b906000526020600020019150610daf8260000160009054906101000a900473ffffffffffffffffffffffffffffffffffffffff1661133c565b50610db985610944565b8160000160009054906101000a900473ffffffffffffffffffffffffffffffffffffffff1690503373ffffffffffffffffffffffffffffffffffffffff168173ffffffffffffffffffffffffffffffffffffffff161415156110dd578160000160149054906101000a90046bffffffffffffffffffffffff166bffffffffffffffffffffffff168410151515610eb7576040517f08c379a00000000000000000000000000000000000000000000000000000000081526004018080602001828103825260118152602001807f707269636520697320746f6f206869676800000000000000000000000000000081525060200191505060405180910390fd5b610ec03361133c565b508160000160149054906101000a90046bffffffffffffffffffffffff166bffffffffffffffffffffffff16600260003373ffffffffffffffffffffffffffffffffffffffff1673ffffffffffffffffffffffffffffffffffffffff1681526020019081526020016000206000015410151515610fa5576040517f08c379a00000000000000000000000000000000000000000000000000000000081526004018080602001828103825260128152602001807f696e73756666696369656e742066756e6473000000000000000000000000000081525060200191505060405180910390fd5b8160000160149054906101000a90046bffffffffffffffffffffffff166bffffffffffffffffffffffff16600260008373ffffffffffffffffffffffffffffffffffffffff1673ffffffffffffffffffffffffffffffffffffffff168152602001908152602001600020600001600082825401925050819055508160000160149054906101000a90046bffffffffffffffffffffffff166bffffffffffffffffffffffff16600260003373ffffffffffffffffffffffffffffffffffffffff1673ffffffffffffffffffffffffffffffffffffffff16815260200190815260200160002060000160008282540392505081905550338260000160006101000a81548173ffffffffffffffffffffffffffffffffffffffff021916908373ffffffffffffffffffffffffffffffffffffffff1602179055505b8160000160149054906101000a90046bffffffffffffffffffffffff166bffffffffffffffffffffffff16600260008373ffffffffffffffffffffffffffffffffffffffff1673ffffffffffffffffffffffffffffffffffffffff16815260200190815260200160002060010160008282829054906101000a900471ffffffffffffffffffffffffffffffffffff160392506101000a81548171ffffffffffffffffffffffffffffffffffff021916908371ffffffffffffffffffffffffffffffffffff160217905550826bffffffffffffffffffffffff16600260003373ffffffffffffffffffffffffffffffffffffffff1673ffffffffffffffffffffffffffffffffffffffff16815260200190815260200160002060010160008282829054906101000a900471ffffffffffffffffffffffffffffffffffff160192506101000a81548171ffffffffffffffffffffffffffffffffffff021916908371ffffffffffffffffffffffffffffffffffff160217905550828260000160146101000a8154816bffffffffffffffffffffffff02191690836bffffffffffffffffffffffff1602179055508073ffffffffffffffffffffffffffffffffffffffff163373ffffffffffffffffffffffffffffffffffffffff16867f7e57392e3f06f222695bf3743dd8eca7b87c7f76a5dc3500fa34c724b746a1ab60405160405180910390a45050505050565b34600260003373ffffffffffffffffffffffffffffffffffffffff1673ffffffffffffffffffffffffffffffffffffffff16815260200190815260200160002060000160008282540192505081905550565b6000806000600260008573ffffffffffffffffffffffffffffffffffffffff1673ffffffffffffffffffffffffffffffffffffffff168152602001908152602001600020915061138b84610516565b90508160000154811115156114c857428260010160126101000a8154816dffffffffffffffffffffffffffff02191690836dffffffffffffffffffffffffffff16021790555080600260008060009054906101000a900473ffffffffffffffffffffffffffffffffffffffff1673ffffffffffffffffffffffffffffffffffffffff1673ffffffffffffffffffffffffffffffffffffffff168152602001908152602001600020600001600082825401925050819055508082600001600082825403925050819055507f778524abb4a8d8a70e766e7841d6cbd0eea9a102e9618edd09e692b89eb3d7368482604051808373ffffffffffffffffffffffffffffffffffffffff1673ffffffffffffffffffffffffffffffffffffffff1681526020018281526020019250505060405180910390a160019250611652565b8082600001548360010160129054906101000a90046dffffffffffffffffffffffffffff166dffffffffffffffffffffffffffff1642030281151561150957fe5b048260010160128282829054906101000a90046dffffffffffffffffffffffffffff160192506101000a8154816dffffffffffffffffffffffffffff02191690836dffffffffffffffffffffffffffff1602179055508160000154600260008060009054906101000a900473ffffffffffffffffffffffffffffffffffffffff1673ffffffffffffffffffffffffffffffffffffffff1673ffffffffffffffffffffffffffffffffffffffff168152602001908152602001600020600001600082825401925050819055507f778524abb4a8d8a70e766e7841d6cbd0eea9a102e9618edd09e692b89eb3d736848360000154604051808373ffffffffffffffffffffffffffffffffffffffff1673ffffffffffffffffffffffffffffffffffffffff1681526020018281526020019250505060405180910390a160008260000181905550600092505b5050919050565b60018181548110151561166857fe5b906000526020600020016000915090508060000160009054906101000a900473ffffffffffffffffffffffffffffffffffffffff16908060000160149054906101000a90046bffffffffffffffffffffffff169050825600a165627a7a72305820afb7cdbc6df5bb4d4f7002cdfd20a3d8a25fb8001a91eb4a1e409920b633ffa70029",
  "source": "pragma solidity ^0.4.24;\n\ncontract HarbergerAds {\n    address public taxRecipient;\n\n    // Per day tax rate\n    uint32 public taxNumerator;\n    uint32 public taxDenominator;\n\n    struct Property {\n        address owner;\n        uint96 price;\n    }\n\n    Property[] public properties;\n\n    constructor(\n        uint48 numberOfProperties,\n        uint32 _taxNumerator,\n        uint32 _taxDenominator\n    ) public {\n        taxRecipient = msg.sender;\n        properties.length = numberOfProperties;\n        taxNumerator = _taxNumerator;\n        taxDenominator = _taxDenominator;\n    }\n\n    struct Account {\n        uint256 balance;\n        uint144 sumOfPrices;\n        uint112 paidThru;\n    }\n\n    mapping(address => Account) public accounts;\n\n    function taxesDue(address addr) public view returns (uint256) {\n        Account storage a = accounts[addr];\n\n        return a.sumOfPrices * (now - a.paidThru) * taxNumerator\n            / taxDenominator / 1 days;\n    }\n\n    event Change(uint256 indexed id, address indexed to, address indexed from);\n\n    // Possibly foreclose on property[id]\n    function forecloseIfPossible(uint256 id) public {\n        Property storage p = properties[id];\n        Account storage a = accounts[p.owner];\n\n        // Owner must be broke and behind on taxes to foreclose\n        if (a.balance == 0 && a.paidThru < now && a.sumOfPrices > 0) {\n            a.sumOfPrices -= p.price;\n            emit Change(id, 0, p.owner);\n            delete(properties[id]);\n        }\n    }\n\n    event TaxesPaid(address owner, uint256 paid);\n    // Collect taxes due from account.\n    // Return true if taxes fully paid, false otherwise\n    function collectTaxes(address addr) public returns (bool) {\n        Account storage a = accounts[addr];\n\n        uint256 taxes = taxesDue(addr);\n        if (taxes <= a.balance) {\n            a.paidThru = uint112(now);\n            accounts[taxRecipient].balance += taxes;\n            a.balance -= taxes;\n            emit TaxesPaid(addr, taxes);\n            return true;\n        } else {\n            // Adjust paidThru proportionally (overflow check unnecessary)\n            a.paidThru += uint112((now - a.paidThru) * a.balance / taxes);\n\n            // Collect entire balance for partially-paid taxes\n            accounts[taxRecipient].balance += a.balance;\n            emit TaxesPaid(addr, a.balance);\n            a.balance = 0;\n            return false;\n        }\n    }\n\n    // Try to buy property for no more than 'max'\n    function buy(\n        uint256 id,\n        uint256 max,\n        uint96 price\n    )\n        public\n        payable\n    {\n        accounts[msg.sender].balance += msg.value;\n\n        Property storage p = properties[id];\n\n        // Collect taxes from property's owner and possibly foreclose on property[id].\n        collectTaxes(p.owner);\n\n        // Foreclosure may change price and seller.\n        forecloseIfPossible(id);\n        address seller = p.owner;\n\n        if (seller != msg.sender) {\n            require(max >= p.price, \"price is too high\");\n\n            // Collect taxes due from buyer before checking their balance\n            collectTaxes(msg.sender);\n            require(accounts[msg.sender].balance >= p.price,\n                \"insufficient funds\");\n\n            // Transfer purchase price\n            accounts[seller].balance += p.price;\n            accounts[msg.sender].balance -= p.price;\n\n            p.owner = msg.sender;\n        }\n        // Adjust buyer's and seller's sumOfPrices\n        accounts[seller].sumOfPrices -= p.price;\n        accounts[msg.sender].sumOfPrices += price;\n\n        p.price = price;\n\n        emit Change(id, msg.sender, seller);\n    }\n\n    function deposit() public payable {\n        accounts[msg.sender].balance += msg.value;\n    }\n\n    function withdraw(uint256 amount) public {\n        collectTaxes(msg.sender);\n\n        require(accounts[msg.sender].balance >= amount, \"insufficient funds\");\n\n        accounts[msg.sender].balance -= amount;\n        msg.sender.transfer(amount);\n    }\n\n    function propertyCount() public view returns (uint256) {\n        return properties.length;\n    }\n\n    address public newRecipient;\n\n    function approveRecipient(address _newRecipient) public {\n        require(msg.sender == taxRecipient, \"must be taxRecipient\");\n        newRecipient = _newRecipient;\n    }\n\n    function transferRecipient() public {\n        require(msg.sender == newRecipient, \"must be approved\");\n        taxRecipient = msg.sender;\n        newRecipient = 0;\n    }\n}\n",
  "sourcePath": "/Users/billy/sol/harberger-ads/contracts/HarbergerAds.sol",
  "compiler": {
    "name": "solc",
    "version": "0.4.24+commit.e67f0147.Emscripten.clang"
  },
  "schemaVersion": "2.0.1",
  "updatedAt": "2018-10-06T17:03:39.890Z"
}